{
  "abi": [
    {
      "inputs": [],
      "stateMutability": "nonpayable",
      "type": "constructor"
    },
    {
      "inputs": [
        {
          "internalType": "uint256",
          "name": "_deadline",
          "type": "uint256"
        },
        {
          "internalType": "string",
          "name": "_description",
          "type": "string"
        }
      ],
      "name": "createProposal",
      "outputs": [],
      "stateMutability": "nonpayable",
      "type": "function"
    },
    {
      "inputs": [
        {
          "internalType": "address",
          "name": "",
          "type": "address"
        },
        {
          "internalType": "uint256",
          "name": "",
          "type": "uint256"
        }
      ],
      "name": "exerciceProgression",
      "outputs": [
        {
          "internalType": "bool",
          "name": "",
          "type": "bool"
        }
      ],
      "stateMutability": "view",
      "type": "function"
    },
    {
      "inputs": [
        {
          "internalType": "uint256",
          "name": "proposalIndex",
          "type": "uint256"
        }
      ],
      "name": "getProposal",
      "outputs": [
        {
          "components": [
            {
              "internalType": "bytes32",
              "name": "id",
              "type": "bytes32"
            },
            {
              "internalType": "uint256",
              "name": "createdDate",
              "type": "uint256"
            },
            {
              "internalType": "uint256",
              "name": "deadline",
              "type": "uint256"
            },
            {
              "internalType": "string",
              "name": "description",
              "type": "string"
            },
            {
              "internalType": "address",
              "name": "createdBy",
              "type": "address"
            },
            {
              "internalType": "uint256",
              "name": "voterCount",
              "type": "uint256"
            }
          ],
          "internalType": "struct ProposalContract.ProposalDto",
          "name": "",
          "type": "tuple"
        }
      ],
      "stateMutability": "view",
      "type": "function"
    },
    {
      "inputs": [],
      "name": "getProposalCount",
      "outputs": [
        {
          "internalType": "uint256",
          "name": "",
          "type": "uint256"
        }
      ],
      "stateMutability": "view",
      "type": "function"
    },
    {
      "inputs": [],
      "name": "owner",
      "outputs": [
        {
          "internalType": "address",
          "name": "",
          "type": "address"
        }
      ],
      "stateMutability": "view",
      "type": "function"
    },
    {
      "inputs": [
        {
          "internalType": "uint256",
          "name": "",
          "type": "uint256"
        }
      ],
      "name": "proposals",
      "outputs": [
        {
          "internalType": "bytes32",
          "name": "id",
          "type": "bytes32"
        },
        {
          "internalType": "uint256",
          "name": "createdDate",
          "type": "uint256"
        },
        {
          "internalType": "uint256",
          "name": "deadline",
          "type": "uint256"
        },
        {
          "internalType": "string",
          "name": "description",
          "type": "string"
        },
        {
          "internalType": "address",
          "name": "createdBy",
          "type": "address"
        },
        {
          "internalType": "uint256",
          "name": "voterCount",
          "type": "uint256"
        }
      ],
      "stateMutability": "view",
      "type": "function"
    },
    {
      "inputs": [
        {
          "internalType": "bytes32",
          "name": "_id",
          "type": "bytes32"
        }
      ],
      "name": "proposalsContainId",
      "outputs": [
        {
          "internalType": "bool",
          "name": "",
          "type": "bool"
        }
      ],
      "stateMutability": "view",
      "type": "function"
    },
    {
      "inputs": [
        {
          "internalType": "bytes32",
          "name": "proposalId",
          "type": "bytes32"
        }
      ],
      "name": "vote",
      "outputs": [],
      "stateMutability": "nonpayable",
      "type": "function"
    }
  ],
  "bytecode": {
    "object": "0x608060405234801561001057600080fd5b50600280546001600160a01b03191633179055610b6b806100326000396000f3fe608060405234801561001057600080fd5b50600436106100885760003560e01c8063a69beaba1161005b578063a69beaba14610136578063c08cc02d14610149578063c7f758a81461015a578063d0d3ecc91461017a57600080fd5b8063013cf08b1461008d57806302d52fa4146100bb5780632e64c500146100d05780638da5cb5b1461010b575b600080fd5b6100a061009b366004610759565b61018d565b6040516100b2969594939291906107c2565b60405180910390f35b6100ce6100c936600461081b565b61026b565b005b6100fb6100de3660046108d6565b600060208181529281526040808220909352908152205460ff1681565b60405190151581526020016100b2565b60025461011e906001600160a01b031681565b6040516001600160a01b0390911681526020016100b2565b6100ce610144366004610759565b610380565b6001546040519081526020016100b2565b61016d610168366004610759565b610578565b6040516100b2919061090e565b6100fb610188366004610759565b6106fc565b6001818154811061019d57600080fd5b90600052602060002090600702016000915090508060000154908060010154908060020154908060030180546101d290610970565b80601f01602080910402602001604051908101604052809291908181526020018280546101fe90610970565b801561024b5780601f106102205761010080835404028352916020019161024b565b820191906000526020600020905b81548152906001019060200180831161022e57829003601f168201915b50505050600483015460059093015491926001600160a01b031691905086565b4282116102bf5760405162461bcd60e51b815260206004820152601e60248201527f446561646c696e65206d75737420626520696e2074686520667574757265000060448201526064015b60405180910390fd5b60018054808201825560009190915260405160079091027fb10e2d527612073b26eecdfd717e6a320cf44b4afac2b0732d9fcbe2b7fa0cf6019061030b908390339042906020016109aa565b60408051601f198184030181529190528051602090910120815542600182015560028101839055600381016103408382610a38565b506004810180546001600160a01b0319163390811790915560009081526006820160205260409020805460ff191660019081179091556005909101555050565b6001546103c45760405162461bcd60e51b8152602060048201526012602482015271139bc8141c9bdc1bdcd85b1cc8195e1a5cdd60721b60448201526064016102b6565b6103cd816106fc565b6104195760405162461bcd60e51b815260206004820152601c60248201527f546869732050726f706f73616c20646f6573206e6f742065786973740000000060448201526064016102b6565b60005b60015481101561057457816001828154811061043a5761043a610af8565b906000526020600020906007020160000154036105625760006001828154811061046657610466610af8565b90600052602060002090600702019050806002015442106104bc5760405162461bcd60e51b815260206004820152601060248201526f159bdd1a5b99c81a5cc818db1bdcd95960821b60448201526064016102b6565b33600090815260068201602052604090205460ff161561052f5760405162461bcd60e51b815260206004820152602860248201527f596f75206861766520616c726561647920766f74656420666f722074686973206044820152671c1c9bdc1bdcd85b60c21b60648201526084016102b6565b3360009081526006820160205260408120805460ff191660011790556005820180549161055b83610b0e565b9190505550505b8061056c81610b0e565b91505061041c565b5050565b6040805160c0810182526000808252602082018190529181018290526060808201526080810182905260a081019190915260015482106105f35760405162461bcd60e51b8152602060048201526016602482015275092dcecc2d8d2c840e0e4dee0dee6c2d840d2dcc8caf60531b60448201526064016102b6565b60006001838154811061060857610608610af8565b9060005260206000209060070201905060006040518060c0016040528083600001548152602001836001015481526020018360020154815260200183600301805461065290610970565b80601f016020809104026020016040519081016040528092919081815260200182805461067e90610970565b80156106cb5780601f106106a0576101008083540402835291602001916106cb565b820191906000526020600020905b8154815290600101906020018083116106ae57829003601f168201915b505050918352505060048401546001600160a01b031660208201526005909301546040909301929092525092915050565b6000805b60015481101561075057826001828154811061071e5761071e610af8565b9060005260206000209060070201600001540361073e5750600192915050565b8061074881610b0e565b915050610700565b50600092915050565b60006020828403121561076b57600080fd5b5035919050565b60005b8381101561078d578181015183820152602001610775565b50506000910152565b600081518084526107ae816020860160208601610772565b601f01601f19169290920160200192915050565b86815285602082015284604082015260c0606082015260006107e760c0830186610796565b6001600160a01b039490941660808301525060a00152949350505050565b634e487b7160e01b600052604160045260246000fd5b6000806040838503121561082e57600080fd5b82359150602083013567ffffffffffffffff8082111561084d57600080fd5b818501915085601f83011261086157600080fd5b81358181111561087357610873610805565b604051601f8201601f19908116603f0116810190838211818310171561089b5761089b610805565b816040528281528860208487010111156108b457600080fd5b8260208601602083013760006020848301015280955050505050509250929050565b600080604083850312156108e957600080fd5b82356001600160a01b038116811461090057600080fd5b946020939093013593505050565b602081528151602082015260208201516040820152604082015160608201526000606083015160c0608084015261094860e0840182610796565b905060018060a01b0360808501511660a084015260a084015160c08401528091505092915050565b600181811c9082168061098457607f821691505b6020821081036109a457634e487b7160e01b600052602260045260246000fd5b50919050565b600084516109bc818460208901610772565b60609490941b6bffffffffffffffffffffffff191691909301908152601481019190915260340192915050565b601f821115610a3357600081815260208120601f850160051c81016020861015610a105750805b601f850160051c820191505b81811015610a2f57828155600101610a1c565b5050505b505050565b815167ffffffffffffffff811115610a5257610a52610805565b610a6681610a608454610970565b846109e9565b602080601f831160018114610a9b5760008415610a835750858301515b600019600386901b1c1916600185901b178555610a2f565b600085815260208120601f198616915b82811015610aca57888601518255948401946001909101908401610aab565b5085821015610ae85787850151600019600388901b60f8161c191681555b5050505050600190811b01905550565b634e487b7160e01b600052603260045260246000fd5b600060018201610b2e57634e487b7160e01b600052601160045260246000fd5b506001019056fea26469706673582212205ba91623f4d0b9ec61b3e950121b9cbfe651c7c0817165c7a9559d8e2812fa1b64736f6c63430008150033",
    "linkReferences": {}
  },
  "methodIdentifiers": {
    "createProposal(uint256,string)": "02d52fa4",
    "exerciceProgression(address,uint256)": "2e64c500",
    "getProposal(uint256)": "c7f758a8",
    "getProposalCount()": "c08cc02d",
    "owner()": "8da5cb5b",
    "proposals(uint256)": "013cf08b",
    "proposalsContainId(bytes32)": "d0d3ecc9",
    "vote(bytes32)": "a69beaba"
  },
  "id": 25
}