{
  "abi": [
    {
      "inputs": [],
      "stateMutability": "nonpayable",
      "type": "constructor"
    },
    {
      "inputs": [
        {
          "internalType": "uint256",
          "name": "_deadline",
          "type": "uint256"
        },
        {
          "internalType": "string",
          "name": "_description",
          "type": "string"
        }
      ],
      "name": "createProposal",
      "outputs": [],
      "stateMutability": "nonpayable",
      "type": "function"
    },
    {
      "inputs": [
        {
          "internalType": "address",
          "name": "",
          "type": "address"
        },
        {
          "internalType": "uint256",
          "name": "",
          "type": "uint256"
        }
      ],
      "name": "exerciceProgression",
      "outputs": [
        {
          "internalType": "bool",
          "name": "",
          "type": "bool"
        }
      ],
      "stateMutability": "view",
      "type": "function"
    },
    {
      "inputs": [
        {
          "internalType": "uint256",
          "name": "proposalIndex",
          "type": "uint256"
        }
      ],
      "name": "getProposal",
      "outputs": [
        {
          "components": [
            {
              "internalType": "bytes32",
              "name": "id",
              "type": "bytes32"
            },
            {
              "internalType": "uint256",
              "name": "createdDate",
              "type": "uint256"
            },
            {
              "internalType": "uint256",
              "name": "deadline",
              "type": "uint256"
            },
            {
              "internalType": "string",
              "name": "description",
              "type": "string"
            },
            {
              "internalType": "address",
              "name": "createdBy",
              "type": "address"
            },
            {
              "internalType": "uint256",
              "name": "voterCount",
              "type": "uint256"
            },
            {
              "internalType": "bool",
              "name": "senderVoted",
              "type": "bool"
            }
          ],
          "internalType": "struct ProposalContract.ProposalDto",
          "name": "",
          "type": "tuple"
        }
      ],
      "stateMutability": "view",
      "type": "function"
    },
    {
      "inputs": [
        {
          "internalType": "bytes32",
          "name": "proposalId",
          "type": "bytes32"
        }
      ],
      "name": "getProposalById",
      "outputs": [],
      "stateMutability": "nonpayable",
      "type": "function"
    },
    {
      "inputs": [],
      "name": "getProposalCount",
      "outputs": [
        {
          "internalType": "uint256",
          "name": "",
          "type": "uint256"
        }
      ],
      "stateMutability": "view",
      "type": "function"
    },
    {
      "inputs": [],
      "name": "owner",
      "outputs": [
        {
          "internalType": "address",
          "name": "",
          "type": "address"
        }
      ],
      "stateMutability": "view",
      "type": "function"
    },
    {
      "inputs": [
        {
          "internalType": "uint256",
          "name": "",
          "type": "uint256"
        }
      ],
      "name": "proposals",
      "outputs": [
        {
          "internalType": "bytes32",
          "name": "id",
          "type": "bytes32"
        },
        {
          "internalType": "uint256",
          "name": "createdDate",
          "type": "uint256"
        },
        {
          "internalType": "uint256",
          "name": "deadline",
          "type": "uint256"
        },
        {
          "internalType": "string",
          "name": "description",
          "type": "string"
        },
        {
          "internalType": "address",
          "name": "createdBy",
          "type": "address"
        },
        {
          "internalType": "uint256",
          "name": "voterCount",
          "type": "uint256"
        }
      ],
      "stateMutability": "view",
      "type": "function"
    },
    {
      "inputs": [
        {
          "internalType": "bytes32",
          "name": "_id",
          "type": "bytes32"
        }
      ],
      "name": "proposalsContainId",
      "outputs": [
        {
          "internalType": "bool",
          "name": "",
          "type": "bool"
        }
      ],
      "stateMutability": "view",
      "type": "function"
    },
    {
      "inputs": [
        {
          "internalType": "bytes32",
          "name": "proposalId",
          "type": "bytes32"
        }
      ],
      "name": "vote",
      "outputs": [],
      "stateMutability": "nonpayable",
      "type": "function"
    }
  ],
  "bytecode": {
    "object": "0x608060405234801561001057600080fd5b50600280546001600160a01b03191633179055610d59806100326000396000f3fe608060405234801561001057600080fd5b50600436106100935760003560e01c80638da5cb5b116100665780638da5cb5b14610129578063a69beaba14610154578063c08cc02d14610167578063c7f758a814610178578063d0d3ecc91461019857600080fd5b8063013cf08b1461009857806302d52fa4146100c6578063109ded1e146100db5780632e64c500146100ee575b600080fd5b6100ab6100a63660046108f2565b6101ab565b6040516100bd9695949392919061095b565b60405180910390f35b6100d96100d43660046109b4565b610289565b005b6100d96100e93660046108f2565b61037f565b6101196100fc366004610a6f565b600060208181529281526040808220909352908152205460ff1681565b60405190151581526020016100bd565b60025461013c906001600160a01b031681565b6040516001600160a01b0390911681526020016100bd565b6100d96101623660046108f2565b610536565b6001546040519081526020016100bd565b61018b6101863660046108f2565b6106e9565b6040516100bd9190610aa7565b6101196101a63660046108f2565b610895565b600181815481106101bb57600080fd5b90600052602060002090600702016000915090508060000154908060010154908060020154908060030180546101f090610b16565b80601f016020809104026020016040519081016040528092919081815260200182805461021c90610b16565b80156102695780601f1061023e57610100808354040283529160200191610269565b820191906000526020600020905b81548152906001019060200180831161024c57829003601f168201915b50505050600483015460059093015491926001600160a01b031691905086565b4282116102dd5760405162461bcd60e51b815260206004820152601e60248201527f446561646c696e65206d75737420626520696e2074686520667574757265000060448201526064015b60405180910390fd5b60018054808201825560009190915260405160079091027fb10e2d527612073b26eecdfd717e6a320cf44b4afac2b0732d9fcbe2b7fa0cf6019061032990839033904290602001610b50565b60408051601f1981840301815291905280516020909101208155426001820155600281018390556003810161035e8382610bde565b506004810180546001600160a01b0319163317905560006005909101555050565b6001546103c35760405162461bcd60e51b8152602060048201526012602482015271139bc8141c9bdc1bdcd85b1cc8195e1a5cdd60721b60448201526064016102d4565b6103cc81610895565b6104185760405162461bcd60e51b815260206004820152601c60248201527f546869732050726f706f73616c20646f6573206e6f742065786973740000000060448201526064016102d4565b60005b60015481101561053257816001828154811061043957610439610c9e565b906000526020600020906007020160000154036105205760006001828154811061046557610465610c9e565b90600052602060002090600702019050806002015442106104bb5760405162461bcd60e51b815260206004820152601060248201526f159bdd1a5b99c81a5cc818db1bdcd95960821b60448201526064016102d4565b33600090815260068201602052604090205460ff16156104ed5760405162461bcd60e51b81526004016102d490610cb4565b3360009081526006820160205260408120805460ff191660011790556005820180549161051983610cfc565b9190505550505b8061052a81610cfc565b91505061041b565b5050565b60015461057a5760405162461bcd60e51b8152602060048201526012602482015271139bc8141c9bdc1bdcd85b1cc8195e1a5cdd60721b60448201526064016102d4565b61058381610895565b6105cf5760405162461bcd60e51b815260206004820152601c60248201527f546869732050726f706f73616c20646f6573206e6f742065786973740000000060448201526064016102d4565b60005b6001548110156105325781600182815481106105f0576105f0610c9e565b906000526020600020906007020160000154036106d75760006001828154811061061c5761061c610c9e565b90600052602060002090600702019050806002015442106106725760405162461bcd60e51b815260206004820152601060248201526f159bdd1a5b99c81a5cc818db1bdcd95960821b60448201526064016102d4565b33600090815260068201602052604090205460ff16156106a45760405162461bcd60e51b81526004016102d490610cb4565b3360009081526006820160205260408120805460ff19166001179055600582018054916106d083610cfc565b9190505550505b806106e181610cfc565b9150506105d2565b6040805160e0810182526000808252602082018190529181018290526060808201526080810182905260a0810182905260c0810191909152600154821061076b5760405162461bcd60e51b8152602060048201526016602482015275092dcecc2d8d2c840e0e4dee0dee6c2d840d2dcc8caf60531b60448201526064016102d4565b60006001838154811061078057610780610c9e565b6000918252602080832033845260066007909302019182018152604080842054815160e0810183528454815260018501549381019390935260028401549183019190915260038301805493955060ff90911693926060830191906107e390610b16565b80601f016020809104026020016040519081016040528092919081815260200182805461080f90610b16565b801561085c5780601f106108315761010080835404028352916020019161085c565b820191906000526020600020905b81548152906001019060200180831161083f57829003601f168201915b505050918352505060048501546001600160a01b0316602082015260059094015460408501529115156060909301929092529392505050565b6000805b6001548110156108e95782600182815481106108b7576108b7610c9e565b906000526020600020906007020160000154036108d75750600192915050565b806108e181610cfc565b915050610899565b50600092915050565b60006020828403121561090457600080fd5b5035919050565b60005b8381101561092657818101518382015260200161090e565b50506000910152565b6000815180845261094781602086016020860161090b565b601f01601f19169290920160200192915050565b86815285602082015284604082015260c06060820152600061098060c083018661092f565b6001600160a01b039490941660808301525060a00152949350505050565b634e487b7160e01b600052604160045260246000fd5b600080604083850312156109c757600080fd5b82359150602083013567ffffffffffffffff808211156109e657600080fd5b818501915085601f8301126109fa57600080fd5b813581811115610a0c57610a0c61099e565b604051601f8201601f19908116603f01168101908382118183101715610a3457610a3461099e565b81604052828152886020848701011115610a4d57600080fd5b8260208601602083013760006020848301015280955050505050509250929050565b60008060408385031215610a8257600080fd5b82356001600160a01b0381168114610a9957600080fd5b946020939093013593505050565b602081528151602082015260208201516040820152604082015160608201526000606083015160e06080840152610ae261010084018261092f565b905060018060a01b0360808501511660a084015260a084015160c084015260c0840151151560e08401528091505092915050565b600181811c90821680610b2a57607f821691505b602082108103610b4a57634e487b7160e01b600052602260045260246000fd5b50919050565b60008451610b6281846020890161090b565b60609490941b6bffffffffffffffffffffffff191691909301908152601481019190915260340192915050565b601f821115610bd957600081815260208120601f850160051c81016020861015610bb65750805b601f850160051c820191505b81811015610bd557828155600101610bc2565b5050505b505050565b815167ffffffffffffffff811115610bf857610bf861099e565b610c0c81610c068454610b16565b84610b8f565b602080601f831160018114610c415760008415610c295750858301515b600019600386901b1c1916600185901b178555610bd5565b600085815260208120601f198616915b82811015610c7057888601518255948401946001909101908401610c51565b5085821015610c8e5787850151600019600388901b60f8161c191681555b5050505050600190811b01905550565b634e487b7160e01b600052603260045260246000fd5b60208082526028908201527f596f75206861766520616c726561647920766f74656420666f722074686973206040820152671c1c9bdc1bdcd85b60c21b606082015260800190565b600060018201610d1c57634e487b7160e01b600052601160045260246000fd5b506001019056fea26469706673582212200d049a6690003f8ebd51ed61b76acfb8939b83e54de96806cb7768e74ef35fc464736f6c63430008150033",
    "linkReferences": {}
  },
  "methodIdentifiers": {
    "createProposal(uint256,string)": "02d52fa4",
    "exerciceProgression(address,uint256)": "2e64c500",
    "getProposal(uint256)": "c7f758a8",
    "getProposalById(bytes32)": "109ded1e",
    "getProposalCount()": "c08cc02d",
    "owner()": "8da5cb5b",
    "proposals(uint256)": "013cf08b",
    "proposalsContainId(bytes32)": "d0d3ecc9",
    "vote(bytes32)": "a69beaba"
  },
  "id": 20
}